:020000040800F2
:10000000003C002079150008C9150008C915000832
:10001000C9150008C9150008C9150008000000002E
:10002000000000000000000000000000C9150008EA
:10003000C915000800000000C9150008D10F00080C
:10004000C9150008C9150008C9150008C915000818
:10005000C9150008C9150008C9150008C915000808
:10006000C9150008C9150008C9150008C9150008F8
:10007000C9150008C9150008C9150008C9150008E8
:10008000C9150008C9150008C9150008C9150008D8
:10009000C9150008C9150008C9150008C9150008C8
:1000A000C9150008C9150008C9150008C9150008B8
:1000B000C9150008C9150008C9150008C9150008A8
:1000C000C9150008C9150008C9150008C915000898
:1000D000C9150008C9150008C9150008C915000888
:1000E000C9150008C915000800000000C91500085E
:1000F000C9150008C9150008C9150008C915000868
:10010000C9150008C9150008C9150008C915000857
:10011000C9150008C9150008C9150008C915000847
:10012000C9150008C9150008C9150008C915000837
:1001300010B5054C237833B9044B13B10448AFF321
:1001400000800123237010BD10000020000000007B
:100150001416000808B5034B1BB103490348AFF35D
:10016000008008BD000000001400002014160008E4
:1001700080B500AF01220221002000F02BFD642099
:1001800000F070FE00220221002000F023FD01207B
:1001900000F068FE01220221002000F01BFD642017
:1001A00000F060FE00220221002000F013FD642018
:1001B00000F058FE01220221002000F00BFD0A4849
:1001C00000F050FE112000F0B2F8084800F04AFE9E
:1001D0003A2000F0ACF8052000F0BEF8292000F02D
:1001E000A6F800BF80BD00BFC0D40100F0490200E6
:1001F00080B584B000AF0346FB802A2000F097F85A
:10020000002000F0A9F8002000F0A6F8002000F07F
:10021000A3F87F2000F0A0F82B2000F088F8002041
:1002200000F09AF8002000F097F8002000F094F811
:100230009F2000F091F82C2000F079F80023FB813A
:1002400010E0FB881B0A9BB27B737B7B184600F097
:1002500083F8FB887B737B7B184600F07DF8FB8975
:100260000133FB81FB89B3F5A04FEAD300BF00BF88
:100270001037BD4680BD90B585B000AF0446084636
:1002800011461A462346FB710346BB710B467B7130
:1002900013463B71BA79FB79D31A9BB239797A79D3
:1002A0008A1A92B202FB03F3BB812A2000F03FF8C6
:1002B000002000F051F8FB79184600F04DF80020BE
:1002C00000F04AF8BB79184600F046F82B2000F001
:1002D0002EF8002000F040F87B79184600F03CF83A
:1002E000002000F039F83B79184600F035F82C2052
:1002F00000F01DF80023FB8110E03B8C1B0A9BB231
:10030000FB72FB7A184600F027F83B8CFB72FB7AF5
:10031000184600F021F8FB890133FB81FA89BB897B
:100320009A42EAD300BF00BF1437BD4690BD80B5E6
:1003300084B000AF0346FB7100220121002000F0D1
:1003400049FC07F10F02FB791146184600F058FDF1
:1003500000BF1037BD4680BD80B584B000AF0346F6
:10036000FB7101220121002000F034FC07F10F0293
:10037000FB791146184600F043FD00BF1037BD461B
:1003800080BD90B583B000AF0446084611461A46BA
:100390002346FB710346BB710B467B7113463B71D1
:1003A0002A20FFF7C4FF0020FFF7D6FFFB7918468D
:1003B000FFF7D2FF0020FFF7CFFF7B791846FFF74A
:1003C000CBFF2B20FFF7B3FF0020FFF7C5FFBB7962
:1003D0001846FFF7C1FF0020FFF7BEFF3B79184624
:1003E000FFF7BAFF2C20FFF7A2FF00BF0C37BD4676
:1003F00090BD82B090B589B000AF7B630346FB80AF
:100400000B46BB801346FB70FB88D8B2BB88D9B2C1
:10041000FB88DAB297F834301344DBB2013BDCB22C
:10042000BB88DAB297F835301344DBB2013BDBB25C
:100430002246FFF7A6FF0023FB6159E0BA6BFB7869
:10044000203B97F8351001FB03F31946FB690B4479
:100450005B0013441B883B610023BB613FE03A69AA
:10046000BB6902FA03F303F40043002B19D0BB8FDE
:100470001B0A9BB2DBB23B73BB8FDBB27B730023E7
:10048000FB750AE0FB7D20333B4413F8143C18460F
:10049000FFF762FFFB7D0133FB75FB7D012BF1D97B
:1004A0001AE0B7F840301B0A9BB2DBB23B72B7F8D8
:1004B0004030DBB27B720023BB750AE0BB7D20338A
:1004C0003B4413F8183C1846FFF746FFBB7D013349
:1004D000BB75BB7D012BF1D9BB690133BB6197F8BB
:1004E00034301A46BB699342B9D3FB690133FB61CF
:1004F00097F835301A46FB6993429FD300BF00BF7F
:100500002437BD46BDE8904002B0704782B080B548
:1005100086B004AF3A607B610346FB800B46BB802C
:1005200031E0FB883A7D13441D4A1288934215DB63
:100530000023FB807B7D9AB2BB881344BB80BB88C1
:100540007A7D1344174A1288934221DA3B681B785C
:10055000202B03D13B6801333B6014E03B681A78E1
:10056000B988F8883B8C0293BB8B0193BB690093DD
:100570007B69FFF73EFF3B7D9AB2FB881344FB800B
:100580003B6801333B603B681B78002BC9D100E01E
:1005900000BF00BF0837BD46BDE8804002B07047CD
:1005A000000000200200002080B584B000AF0346A8
:1005B000FB710023FB73FB7903F00303DAB2304BCA
:1005C0001A702F4B1B78032B4ED801A252F823F040
:1005D000E105000803060008250600084706000894
:1005E000C023FB73274BA0221A80274B80221A803E
:1005F000264B1A78264B1A70264B1A78264B1A70FF
:1006000032E0A023FB73204BA0221A801D4B8022D6
:100610001A801E4B1A78204B1A701E4B1A781C4BEE
:100620001A7021E00023FB73164BA0221A80164B90
:1006300080221A80154B1A78154B1A70154B1A78B0
:10064000154B1A7010E06023FB730F4BA0221A8029
:100650000C4B80221A800D4B1A780F4B1A700D4BE1
:100660001A780B4B1A7000BF3620FFF760FEFB7B39
:100670001846FFF771FE00BF1037BD4680BD00BFB2
:100680002C00002002000020000000202D0000208F
:100690002F0000202E0000203000002080B584B004
:1006A00000AF78607B6803331B78332B16D17B68EF
:1006B00004331B78432B11D10F237B73174B01227B
:1006C0001A607B7BFB7306E07B7B184600F028F802
:1006D000FB7B0133FB73FB7B3F2BF5D97B6803333B
:1006E0001B78382B16D17B6804331B78432B11D130
:1006F0000A4B02221A6023237B737B7BBB7306E0C9
:100700007B7B184600F00CF8BB7B0133BB73BB7BD3
:100710003F2BF5D900BF1037BD4680BD3400002007
:1007200080B483B000AF0346FB7100BF1E4BDB6893
:1007300003F00103012BF9D01B4B1B69DB0903F00C
:100740000103012B05D1184B184A5A60164B184A61
:100750005A60154B1B69144A43F002031361FB797D
:100760009B02114A03F1006353610F4B1B690E4A50
:1007700043F04003136100BF0B4BDB6803F0010340
:10078000012BF9D0084BDB68074A43F02003D36004
:10079000054B1B69044A23F00203136100BF0C37A9
:1007A000BD4680BC704700BF002002402301674562
:1007B000AB89EFCD80B487B000AFF860B960134665
:1007C000FB7100BF254BDB6803F00103012BF9D05F
:1007D000224B1B69DB0903F00103012B05D11F4BE1
:1007E0001F4A5A601D4B1F4A5A600023FB752BE0BD
:1007F0001A4B1B69194A43F001031361FB7D5B002F
:10080000BA6813441B88BB82FB7D5B00BA681A443C
:10081000FB6812881A80FB680233FB6000BF0F4B35
:10082000DB6803F00103012BF9D00C4BDB680B4AAA
:1008300043F02003D360094B1B69084A23F00103EE
:100840001361FB7D0133FB75FA7DFB799A42CFD3AF
:1008500000BF00BF1C37BD4680BC7047002002406F
:1008600023016745AB89EFCD80B485B000AF034667
:10087000FB71FB792F2B06D9FB79392B03D8FB7938
:10088000303BFB7302E0FB79373BFB73FB7B184685
:100890001437BD4680BC704780B586B000AF786025
:1008A0000023BB757B6801331B781846FFF7DCFF1C
:1008B00003467B757B6802331B781846FFF7D4FF2D
:1008C00003463B757B7D1B015AB297F914301343E5
:1008D0005BB2FB747B6803331B781846FFF7C4FFD9
:1008E0000346BB747B6804331B781846FFF7BCFFD4
:1008F00003467B747B6805331B781846FFF7B4FF0B
:1009000003463B747B6806331B781846FFF7ACFF41
:100910000346FB73394B1B681B0C1B04374A1360DF
:10092000FA7B364B1B6813433A7C120113437A7CE3
:1009300012021343BA7C12031343304A136000239C
:10094000FB7547E0FB7D9B0009337A6813441B78F5
:100950001846FFF789FF0346BB74FB7D9B000A33F3
:100960007A6813441B781846FFF77EFF03467B74B2
:10097000FB7D9B000B337A6813441B781846FFF706
:1009800073FF03463B74FB7D9B000C337A68134472
:100990001B781846FFF768FF0346FB73FB7B1B02BF
:1009A0001AB23B7C1B031BB213431AB27B7C1BB2F3
:1009B00013431AB2BB7C1B011BB213431AB2BB7D9B
:1009C00091B20F4A22F81310BB7D0133BB75FB7D3A
:1009D0000133FB75FB7C5B08DBB2FA7D9A42B1D335
:1009E000064B1868FB7C5B08DBB21A460449FFF72C
:1009F000E1FE00BF1837BD4680BD00BF0C000020DF
:100A00003800002080B582B000AF78607B68083382
:100A10001B78302B03D17868FFF73EFF00BF00BF83
:100A20000837BD4680BD000080B483B000AF0346E8
:100A3000FB710B46BB7113467B71FB79022B7AD09D
:100A4000022B00F3B680002B02D0012B3AD0B0E08D
:100A5000BB79072B17D8594B1B68BA7992000F2125
:100A600001FA02F2D2431146544A0B401360534B31
:100A70001B687979BA79920001FA02F211464F4A5D
:100A80000B43136090E0BB790F2B00F28D80BB7994
:100A9000083BBB714A4B1B68BA7992000F2101FADF
:100AA00002F2D2431146464A0B401360444B1B6886
:100AB0007979BA79920001FA02F21146404A0B4361
:100AC000136071E0BB79072B17D83E4B1B68BA79CE
:100AD00092000F2101FA02F2D2431146394A0B402B
:100AE0001360384B1B687979BA79920001FA02F2E7
:100AF0001146344A0B43136058E0BB790F2B55D88D
:100B0000BB79083BBB71304B1B68BA7992000F214F
:100B100001FA02F2D24311462B4A0B4013602A4BD2
:100B20001B687979BA79920001FA02F21146264AD5
:100B30000B4313603AE0BB79072B17D8234B1B6894
:100B4000BA7992000F2101FA02F2D24311461F4AEC
:100B50000B4013601D4B1B687979BA79920001FA3A
:100B600002F21146194A0B43136021E0BB790F2BA7
:100B70001ED8BB79083BBB71154B1B68BA79920034
:100B80000F2101FA02F2D2431146114A0B401360C1
:100B90000F4B1B687979BA79920001FA02F211467B
:100BA0000B4A0B43136003E000BF02E000BF00E00C
:100BB00000BF00BF0C37BD4680BC70470008014035
:100BC00004080140000C0140040C014000100140E9
:100BD0000410014080B483B000AF0346FB710B46A4
:100BE000BB7113467B71FB79022B40D0022B60DC7A
:100BF000002B02D0012B1DD05BE07B79012B0AD1A9
:100C00002E4B1B68BA79012101FA02F211462B4AD8
:100C10000B43136048E07B79002B45D1274B1B68C1
:100C2000BA79012101FA02F2D2431146234A0B405C
:100C3000136039E07B79012B0AD1214B1B68BA790B
:100C4000012101FA02F211461D4A0B4313602DE007
:100C50007B79002B2AD11A4B1B68BA79012101FA42
:100C600002F2D2431146164A0B4013601EE07B7914
:100C7000012B0AD1134B1B68BA79012101FA02F248
:100C80001146104A0B43136012E07B79002B0FD101
:100C90000C4B1B68BA79012101FA02F2D2431146CA
:100CA000084A0B40136003E000BF02E000BF00E011
:100CB00000BF00BF0C37BD4680BC70470C08014028
:100CC0000C0C01400C10014080B485B000AF03460D
:100CD0000A46FB711346BB710023FB73FB79022BA1
:100CE0001AD0022B22DC002B02D0012B0AD01DE0EF
:100CF000114B1A68BB7922FA03F3DBB203F001034C
:100D0000FB7313E00D4B1A68BB7922FA03F3DBB2D5
:100D100003F00103FB7309E0094B1A68BB7922FA5F
:100D200003F3DBB203F00103FB7300BFFB7B184648
:100D30001437BD4680BC704708080140080C0140CC
:100D40000810014080B400AF044B81221A60044BAC
:100D500000221A6000BFBD4680BC704700100240F0
:100D60000410024080B483B000AF03460A46FB7112
:100D70001346BB71BB791F2B2BD8FB79022B1CD0E0
:100D8000022B25DC002B02D0012B0BD020E0134BD3
:100D90001B68BA79012101FA02F211460F4A0B438E
:100DA000136016E00E4B1B68BA79012101FA02F2BA
:100DB00011460B4A0B4313600BE00A4B1B68BA79D0
:100DC000012101FA02F21146064A0B43136000E0CA
:100DD00000BF00BF0C37BD4680BC704714100240F6
:100DE0001C1002401810024080B400AF034B40F2C8
:100DF00047321A6000BFBD4680BC704700300140DA
:100E000080B582B000AF03463960FB71002200213B
:100E10000020FFF7DFFE0C4AFB79D36000BF0A4BCE
:100E20009B68DB0903F00103012BF8D0064BDB685C
:100E3000DAB23B681A70012200210020FFF7CAFED7
:100E400000BF0837BD4680BD0030014080B400AF10
:100E5000034B04221A6000BFBD4680BC704700BF30
:100E600010E000E080B483B000AF7860104A7B6887
:100E700053600F4B1B680E4A43F00103136000BF21
:100E80000B4B1B6803F48033002BF9D0084B1B6815
:100E9000074A43F001031360054B00225A60044BDC
:100EA00000229A6000BF0C37BD4680BC704700BF6F
:100EB00010E000E080B483B000AF03463960FB71FE
:100EC000194B1B68184A23F001031360164B0022CC
:100ED0009A60FB790F2B05D8FB79144A03FB02F2C9
:100EE000114B5A60FB79102B07D90F4B104A5A60EF
:100EF000FB790F3BDAB20F4B1A700B4B1B680A4A97
:100F000043F0010313600C4A3B6813600B4B002253
:100F10001A70054B1B68044A43F00203136000BFBC
:100F20000C37BD4680BC704710E000E040420F0027
:100F3000C0E1E400000100200401002008010020BD
:100F400080B483B000AF78603960114B1B68104AE1
:100F500023F0010313600E4B00229A600C4A7B6859
:100F600053600B4B1B680A4A43F001031360094AA4
:100F70003B681360084B00221A70054B1B68044A3B
:100F800043F00203136000BF0C37BD4680BC7047BE
:100F900010E000E0040100200801002080B400AF50
:100FA0000A4B1B68094A23F002031360074B1B68B6
:100FB000064A43F001031360044B00225A60034BBE
:100FC00000229A6000BFBD4680BC704710E000E080
:100FD00080B582B000AF304B1B78002B34D02F4B44
:100FE0001B682E4A23F0010313602C4B00229A60E9
:100FF000294B1B780E2B0AD8274B1B781A46284BF7
:1010000003FB02F2254B5A60234B00221A70224B3D
:101010001B780F2B08D9214B224A5A601E4B1B7894
:101020000F3BDAB21C4B1A701C4B1B681B4A43F077
:10103000010313601C4B00221A70184B1B68174ADF
:1010400043F0020313601CE0174B1B78002B18D1F0
:10105000114B1B78002B14D1104B1B680F4A23F047
:10106000020313600D4B1B680C4A43F0010313602D
:101070000A4B00225A60094B00229A600B4B1B68F6
:101080009847064B1B681B0CDBB203F00103FB7196
:1010900000BF0837BD4680BD0001002010E000E021
:1010A00040420F00C0E1E4000801002004010020DC
:1010B00080B400AF0E4B40F241329A600C4BDB68BB
:1010C0000B4A43F00803D360094BDB68084A43F03E
:1010D0000403D360064BDB68054A43F40053D36036
:1010E000034B00221A6000BFBD4680BC704700BFA2
:1010F0000038014080B485B000AF78600023FB73F6
:101100000FE0FB7B7A6813441A780C4B5A6000BFDF
:101110000A4B1B6803F04003002BF9D0FB7B013323
:10112000FB73FB7B7A6813441B78002BE9D100BF6B
:1011300000BF1437BD4680BC704700BF0038014077
:1011400080B485B000AF78600123FB730A4B1B6845
:101150005B0903F00103012B05D1074B5B68DAB291
:101160007B681A7001E00023FB73FB7B1846143781
:10117000BD4680BC704700BF0038014080B584B0D8
:1011800004AFFFF7DFFD02210220FFF7EBFD032193
:101190000220FFF7E7FD0C210220FFF7E3FD0E21FF
:1011A0000220FFF7DFFD04210020FFF7DBFD022214
:1011B00001210020FFF738FC022202210020FFF766
:1011C00033FC092205210020FFF72EFC092207210C
:1011D0000020FFF729FC0A2209210020FFF724FC48
:1011E00004220A210020FFF71FFC0822042101200D
:1011F000FFF71AFC012204210120FFF7EBFC082273
:1012000005210120FFF710FC012205210120FFF735
:10121000E1FCFFF74DFFFFF719FEFFF7E5FDFEF7D5
:10122000A7FF0020FFF7C0F90020FEF7E1FF012033
:10123000FFF7BAF9344B002202924FF47842019240
:101240005A6800921B68314A05210020FFF75EF9B9
:101250002D4B002202924FF61F0201925A68009213
:101260001B682B4A28210020FFF750F92949192033
:10127000FFF720FE3EE0284B1B78DBB21A46274BD7
:1012800013441846FFF75CFF03461A46244B1A70B6
:10129000234B1B78012B2DD1FFF780FE1E4B1B78B3
:1012A000DBB21A461D4B9B5C0A2B18D11D4B1B78D9
:1012B000DBB2002B09D1194B1B7A302B05D1174813
:1012C000FFF7ECF9174B01221A701448FFF79AFB4D
:1012D0001548FFF70FFF104B00221A7006E00E4B67
:1012E0001B78DBB20133DAB20B4B1A7009490F4895
:1012F000FFF726FE0E4B1B78DBB2002BBBD000BFE6
:1013000000BFBD4680BD00BF040000202C160008B1
:101310003C16000899130008700100200C01002001
:1013200073010020710100204C160008001BB7005B
:101330007201002080B582B000AF01237B600123E1
:101340003B600EE004210120FFF7BEFC03467B60FA
:1013500005210120FFF7B8FC03463B600D48FFF76D
:1013600081FD7B68002B04D03B68002B01D001235A
:1013700000E00023012BE5D07B68002B01D1012385
:1013800004E03B68002B01D10223FFE71846083731
:10139000BD4680BD00093D0080B586B004AF002386
:1013A000009332231922A0210020FEF764FF614B35
:1013B0001B68022B24D0022B31DC002B02D0012B26
:1013C0000FD02CE05C4B002202924FF61F020192DC
:1013D0005A6800921B68594A28210020FFF796F8A6
:1013E0001DE0554B002202924FF61F0201925A68EF
:1013F00000921B68524A28210020FFF787F80EE070
:101400004D4B002202924FF61F0201925A68009241
:101410001B684C4A28210020FFF778F800BFFFF72F
:10142000BDFD4948FFF71EFD4748FFF71BFD464835
:10143000FFF718FD0023009332231922A02100207A
:10144000FEF719FF3C4B002202924FF4FC6201921E
:101450005A6800921B683D4A19210020FFF756F890
:10146000354B002202924FF4FC6201925A680092BE
:101470001B68374A32210020FFF748F82E4B002224
:1014800002924FF4FC6201925A6800921B68314A42
:101490004B210020FFF73AF8FFF74CFF786000205F
:1014A000FFF782F80020FEF7A3FE0120FFF77CF88B
:1014B0007B68012B1BD1204B002202924FF4FC626F
:1014C00001925A6800921B68234A1E210020FFF7F0
:1014D0001DF81D48FFF7C6FC204B214A1A60214B1E
:1014E0001B68214A1360204B1B6898471DE07B68EE
:1014F000022B1AD1104B002202924FF4FC6201928F
:101500005A6800921B68194A1E210020FEF7FEFF50
:101510000D48FFF7A7FC114B154A1A60154B1B68C5
:10152000114A1360104B1B68984700BF0837BD462F
:1015300080BD00BF340000200400002050160008C9
:10154000601600087016000800093D0080160008AB
:101550008C1600089C160008AC16000808ED00E088
:10156000003C0008043C000874010020BC16000880
:10157000008C0008048C00080D488546AFF30080FD
:101580000C480D490D4A002302E0D458C4500433DE
:10159000C4188C42F9D30A4A0A4C002301E01360B4
:1015A0000432A242FBD300F011F8FFF7E7FDFEE79B
:1015B000003C002000000020100000203024000823
:1015C0001000002078010020FEE7000070B5002622
:1015D0000C4D0D4C641BA410A64209D100F01AF862
:1015E00000260A4D0A4C641BA410A64205D170BD0A
:1015F00055F8043B98470136EEE755F8043B984709
:101600000136F2E7282400082824000828240008CE
:101610002C240008F8B500BFF8BC08BC9E467047F3
:0C162000F8B500BFF8BC08BC9E4670473F
:10162C002020426F6F74204C6F6164657220000043
:10163C0077616974207570646174652E2E000000EA
:10164C006F6B00004E4F2041505020555044415478
:10165C0045442000415050203120555044415445C0
:10166C0044200000415050203220555044415445F4
:10167C004420000053656C65637420415050200079
:10168C0020313A41505031202020202020200000D1
:10169C0020323A41505032202020202020200000BF
:1016AC00415050312077696C6C2072756E000000CF
:1016BC00415050322077696C6C2072756E000000BE
:1016CC00000000000000000000000000000000000E
:1016DC0000000000000000000000000000000000FE
:1016EC00000000000000000C000C000C000C000CB2
:1016FC00000C000C000C000C000C000C0000000C8A
:10170C00000C0000000000000000001B001B001B70
:10171C00001B001B00000000000000000000000087
:10172C000000000000000000000000000000801914
:10173C00801980198019C07FC07F80190033C07F49
:10174C00C07F003300330033003300000000000082
:10175C000000001E003F807580650074003C001E78
:10176C0000078005806580658075003F001E0004C1
:10177C00000400000000007000D840D8C0D880D908
:10178C0000730006000C801BC036C066C046C00645
:10179C0080030000000000000000001E003F00332A
:1017AC0000330033001E000CC03CC06680638061B7
:1017BC008063C03E801C0000000000000000000C94
:1017CC00000C000C000C000C0000000000000000DD
:1017DC0000000000000000000000000000000000FD
:1017EC00800000010003000600060004000C000C41
:1017FC00000C000C000C000C00040006000600039A
:10180C0000018000002000100018000C000C0004E7
:10181C000006000600060006000600060004000C88
:10182C00000C0018001000200000000C002D003FE0
:10183C00001E00330000000000000000000000004B
:10184C00000000000000000000000000000000008C
:10185C000000000C000C000C000CC0FFC0FF000CC2
:10186C00000C000C000C0000000000000000000048
:10187C00000000000000000000000000000000005C
:10188C0000000000000000000000000C000C000430
:10189C000004000800000000000000000000000030
:1018AC00000000000000001E001E000000000000F0
:1018BC00000000000000000000000000000000001C
:1018CC00000000000000000000000000000000000C
:1018DC000000000C000C00000000000000000003E1
:1018EC00000300030006000600060006000C000CB6
:1018FC00000C000C0018001800180000000000007C
:10190C000000001E003F0033806180618061806DAB
:10191C00806D8061806180610033003F001E00009B
:10192C000000000000000006000E001E003600261D
:10193C00000600060006000600060006000600066B
:10194C0000060000000000000000001E003F807335
:10195C0080618061800100030006000C00180030DB
:10196C000060807F807F0000000000000000001CF1
:10197C00003E006300630003000E000E00038001B4
:10198C00800180618073003F001E00000000000099
:10199C0000000006000E000E001E001E0016003691
:1019AC0000360066807F807F00060006000600007F
:1019BC00000000000000007F007F006000600060FD
:1019CC00006E007F80638001800180618073003F26
:1019DC00001E0000000000000000001E003F8033CD
:1019EC0080610060006E007F807380618061806127
:1019FC008033003F001E0000000000000000807FCC
:101A0C00807F80010003000300060006000C000C20
:101A1C00000C00080018001800180000000000005E
:101A2C000000001E003F8063806180610021001E69
:101A3C00003F8061806180618061003F001E00007A
:101A4C00000000000000001E003F007380618061F8
:101A5C0080618073803F801D800180610073003F36
:101A6C00001E00000000000000000000000000004C
:101A7C000000000C000C0000000000000000000042
:101A8C000000000C000C0000000000000000000032
:101A9C000000000000000000000C000C0000000022
:101AAC00000000000000000C000C00040004000802
:101ABC00000000000000000080008003000E0038D1
:101ACC0000600038000E8003800000000000000061
:101ADC000000000000000000000000000000807FFB
:101AEC00807F00000000807F807F000000000000ED
:101AFC0000000000000000000000000000000000DA
:101B0C0000400070001C000780010007001C0070E2
:101B1C000040000000000000000000000000001F5A
:101B2C00803FC071C060C000C00180030007000E80
:101B3C00000C000C0000000C000C00000000000069
:101B4C000000001E003F803180718063806F806DCB
:101B5C00806D806F806700600032003E001C0000CA
:101B6C00000000000000000E000E001B001B001BFC
:101B7C00001B80318031803F803F8031C060C0606D
:101B8C00C0600000000000000000007C007E0063CC
:101B9C00006300630063007E007E006380618061EF
:101BAC008063007F007E0000000000000000001E2B
:101BBC00003F803180610060006000600060006068
:101BCC00006080618031003F001E000000000000BA
:101BDC000000007C007F0063806380618061806115
:101BEC0080618061806100630063007E007C000086
:101BFC00000000000000807F807F006000600060BB
:101C0C000060007F007F0060006000600060807FEB
:101C1C00807F0000000000000000807F807F00605B
:101C2C00006000600060007F007F0060006000606A
:101C3C000060006000600000000000000000001E5A
:101C4C00003F8031806100600060006080638063D1
:101C5C00806180618031803F001E00000000000028
:101C6C000000806180618061806180618061807F23
:101C7C00807F806180618061806180618061000013
:101C8C00000000000000003F003F000C000C000CA6
:101C9C00000C000C000C000C000C000C000C003FA5
:101CAC00003F000000000000000080018001800166
:101CBC008001800180018001800180018061806150
:101CCC008073003F001E0000000000000000C06098
:101CDC008061006300660066006C0078007C006622
:101CEC000066006380618061C0600000000000003D
:101CFC000000006000600060006000600060006038
:101D0C0000600060006000600060807F807F0000E9
:101D1C00000000000000C071C071C07BC07AC06AB6
:101D2C00C06AC06EC064C060C060C060C060C0608B
:101D3C00C06000000000000000008071807180799C
:101D4C0080798079806D806D806D8065806780671B
:101D5C008067806380630000000000000000001EAC
:101D6C00003F0033806180618061806180618061AF
:101D7C00806180610033003F001E00000000000005
:101D8C000000007E007F80638061806180618063E1
:101D9C00007F007E0060006000600060006000005A
:101DAC00000000000000001E003F003380618061D5
:101DBC008061806180618061806580670033803FD5
:101DCC00401E0000000000000000007E007F8063C9
:101DDC00806180618063007F007E00660063006329
:101DEC0080618061C0600000000000000000000EF7
:101DFC00001F8031803100300038001E0007800346
:101E0C00806180618031003F001E000000000000F6
:101E1C000000C0FFC0FF000C000C000C000C000CFC
:101E2C00000C000C000C000C000C000C000C000052
:101E3C000000000000008061806180618061806131
:101E4C008061806180618061806180618073003F0E
:101E5C00001E0000000000000000C060C060C060F8
:101E6C00803180318031001B001B001B001B000ED9
:101E7C00000E000E00040000000000000000C0C0B6
:101E8C00C0C0C0C0C0C0C0C0C0CC804C804C805E44
:101E9C0080528052807380618061000000000000DD
:101EAC000000C0C0806080610033003B001E000C4D
:101EBC00000C001E001F003B80718061C0C0000040
:101ECC00000000000000C0C080618061003300335E
:101EDC00001E001E000C000C000C000C000C000C72
:101EEC00000C0000000000000000803F803F8001DB
:101EFC00000300030006000C000C00180018003052
:101F0C000060807F807F000000000000000F000F49
:101F1C00000C000C000C000C000C000C000C000C55
:101F2C00000C000C000C000C000C000C000F000F3F
:101F3C000000001800180018000C000C000C000C1D
:101F4C000006000600060006000300030003000064
:101F5C0000000000001E001E000600060006000621
:101F6C000006000600060006000600060006000635
:101F7C0000060006001E001E0000000C000C001ED7
:101F8C00001200330033806180610000000000000B
:101F9C000000000000000000000000000000000035
:101FAC000000000000000000000000000000000025
:101FBC00000000000000000000000000E0FF000036
:101FCC00000000380018000C0000000000000000A9
:101FDC0000000000000000000000000000000000F5
:101FEC000000000000000000000000000000001FC6
:101FFC00803F80618001801F803F80618063807F93
:10200C00C0380000000000000000006000600060AC
:10201C000060006E007F80738061806180618061F0
:10202C008073007F006E00000000000000000000C4
:10203C00000000000000001E003F80738061006003
:10204C00006080618073003F001E000000000000F3
:10205C0000008001800180018001801D803F807321
:10206C0080618061806180618073803F801D000091
:10207C000000000000000000000000000000001E36
:10208C00003F00738061807F807F00608071003F23
:10209C00001E0000000000000000C007C00F000C74
:1020AC00000C807F807F000C000C000C000C000CDE
:1020BC00000C000C000C00000000000000000000F0
:1020CC0000000000801D803F807380618061806112
:1020DC0080618073803F801D80018063007F003EA3
:1020EC0000000060006000600060006F807F807105
:1020FC0080618061806180618061806180610000AD
:10210C000000000000000006000600000000003E79
:10211C00003E00060006000600060006000600064B
:10212C000006000000000000000600060000000091
:10213C00003E003E000600060006000600060006F3
:10214C000006000600060046007E003C0000006011
:10215C00006000600060806100630066006C007CC1
:10216C000076006300638061C06000000000000026
:10217C000000003E003E00060006000600060006B9
:10218C000006000600060006000600060006000019
:10219C00000000000000000000000000000080DDD6
:1021AC00C0FFC0CEC0CCC0CCC0CCC0CCC0CCC0CC8E
:1021BC00C0CC000000000000000000000000000087
:1021CC000000006F807F8071806180618061806120
:1021DC008061806180610000000000000000000050
:1021EC00000000000000001E003F807380618061D1
:1021FC00806180618073003F001E000000000000C1
:10220C000000000000000000006E007F8073806101
:10221C008061806180618073007F006E006000606F
:10222C00006000600000000000000000801D803F86
:10223C00807380618061806180618073803F801DCC
:10224C00800180018001800100000000000000007E
:10225C0000000067803F0039003000300030003053
:10226C0000300030003000000000000000000000D2
:10227C00000000000000001E803F80610060007FB5
:10228C00803F80018061007F001E00000000000084
:10229C0000000000000800180018007F007F0018E4
:1022AC0000180018001800180018801F800F00007C
:1022BC000000000000000000000000000000806131
:1022CC008061806180618061806180618063807FDA
:1022DC00803D000000000000000000000000000035
:1022EC000000C060803180318031001B001B001B5E
:1022FC00000E000E000600000000000000000000B0
:10230C0000000000000080DD80DD80DD0055005500
:10231C00005500770077002200220000000000002A
:10232C00000000000000000000008061003300335A
:10233C00001E000C000C001E0033003380610000F6
:10234C0000000000000000000000000080618061BF
:10235C00803100330033001B001B001B000E000EED
:10236C00000E001C007C007000000000000000004B
:10237C000000C07FC07F800100030006000C001825
:10238C000030C07FC07F0000000000008003800789
:10239C0000060006000600060006000E001C001CCD
:1023AC00000E0006000600060006000680078003EB
:1023BC0000060006000600060006000600060006E1
:1023CC0000060006000600060006000600060006D1
:1023DC00000600060038003C000C000C000C000C41
:1023EC00000C000E00070007000E000C000C000C87
:1023FC00000C000C003C0038000000000000000045
:10240C000000000000008038807F004700000000C2
:0C241C00000000000000000000000000B4
:042428005501000852
:04242C003101000872
:102430008000A0000B120000CC160008000000086D
:040000050800157961
:00000001FF
