:020000040800F2
:103C000000500020ED4800083D4900083D490008EB
:103C10003D4900083D4900083D49000800000000FA
:103C20000000000000000000000000003D49000806
:103C30003D490008000000003D49000871460008A9
:103C40003D4900083D4900083D4900083D4900083C
:103C50003D4900083D4900083D4900083D4900082C
:103C60003D4900083D4900083D4900083D4900081C
:103C70003D4900083D4900083D4900083D4900080C
:103C80003D4900083D4900083D4900083D490008FC
:103C90003D4900083D4900083D4900083D490008EC
:103CA0003D4900083D4900083D4900083D490008DC
:103CB0003D4900083D4900083D4900083D490008CC
:103CC0003D4900083D4900083D4900083D490008BC
:103CD0003D4900083D4900083D4900083D490008AC
:103CE0003D4900083D490008000000003D4900082A
:103CF0003D4900083D4900083D4900083D4900088C
:103D00003D4900083D4900083D4900083D4900087B
:103D10003D4900083D4900083D4900083D4900086B
:103D20003D4900083D4900083D4900083D4900085B
:103D300010B5054C237833B9044B13B10448AFF3E5
:103D400000800123237010BD10000020000000003F
:103D50008849000808B5034B1BB103490348AFF37A
:103D6000008008BD00000000140000208849000801
:103D700080B500AF01220221002000F009FB642081
:103D800000F04EFC00220221002000F001FB012087
:103D900000F046FC01220221002000F0F9FA642024
:103DA00000F03EFC00220221002000F0F1FA642025
:103DB00000F036FC01220221002000F0E9FA0A4856
:103DC00000F02EFC112000F056F8084800F028FC06
:103DD0003A2000F050F8052000F062F8292000F0A9
:103DE0004AF800BF80BD00BFC0D40100F049020006
:103DF00080B584B000AF0346FB802A2000F03BF87A
:103E0000002000F04DF8002000F04AF8002000F0FB
:103E100047F87F2000F044F82B2000F02CF8002019
:103E200000F03EF8002000F03BF8002000F038F8E9
:103E30009F2000F035F82C2000F01DF80023FB81B6
:103E400010E0FB881B0A9BB27B737B7B184600F05B
:103E500027F8FB887B737B7B184600F021F8FB89F1
:103E60000133FB81FB89B3F5A04FEAD300BF00BF4C
:103E70001037BD4680BD80B584B000AF0346FB71EE
:103E800000220121002000F083FA07F10F02FB79E4
:103E90001146184600F092FB00BF1037BD4680BDAA
:103EA00080B584B000AF0346FB71012201210020E0
:103EB00000F06EFA07F10F02FB791146184600F088
:103EC0007DFB00BF1037BD4680BD90B583B000AF0D
:103ED0000446084611461A462346FB710346BB7149
:103EE0000B467B7113463B712A20FFF7C4FF00206D
:103EF000FFF7D6FFFB791846FFF7D2FF0020FFF748
:103F0000CFFF7B791846FFF7CBFF2B20FFF7B3FFDE
:103F10000020FFF7C5FFBB791846FFF7C1FF00205F
:103F2000FFF7BEFF3B791846FFF7BAFF2C20FFF7DB
:103F3000A2FF00BF0C37BD4690BD82B090B589B0DE
:103F400000AF7B630346FB800B46BB801346FB70D0
:103F5000FB88D8B2BB88D9B2FB88DAB297F8343084
:103F60001344DBB2013BDCB2BB88DAB297F83530E0
:103F70001344DBB2013BDBB22246FFF7A6FF00236E
:103F8000FB6159E0BA6BFB78203B97F8351001FBD9
:103F900003F31946FB690B445B0013441B883B6128
:103FA0000023BB613FE03A69BB6902FA03F303F403
:103FB0000043002B19D0BB8F1B0A9BB2DBB23B73B3
:103FC000BB8FDBB27B730023FB750AE0FB7D2033E4
:103FD0003B4413F8143C1846FFF762FFFB7D0133A6
:103FE000FB75FB7D012BF1D91AE0B7F840301B0AB5
:103FF0009BB2DBB23B72B7F84030DBB27B7200237E
:10400000BB750AE0BB7D20333B4413F8183C1846CF
:10401000FFF746FFBB7D0133BB75BB7D012BF1D99B
:10402000BB690133BB6197F834301A46BB699342D0
:10403000B9D3FB690133FB6197F835301A46FB6948
:1040400093429FD300BF00BF2437BD46BDE89040D8
:1040500002B0704782B080B586B004AF3A607B6131
:104060000346FB800B46BB8031E0FB883A7D13445E
:104070001D4A1288934215DB0023FB807B7D9AB298
:10408000BB881344BB80BB887A7D1344174A1288CF
:10409000934221DA3B681B78202B03D13B68013324
:1040A0003B6014E03B681A78B988F8883B8C02932F
:1040B000BB8B0193BB6900937B69FFF73EFF3B7DA0
:1040C0009AB2FB881344FB803B6801333B603B683A
:1040D0001B78002BC9D100E000BF00BF0837BD46E8
:1040E000BDE8804002B070470000002002000020C0
:1040F00080B584B000AF0346FB710023FB73FB79EE
:1041000003F00303DAB2304B1A702F4B1B78032BEA
:104110004ED801A252F823F0294100084B41000873
:104120006D4100088F410008C023FB73274BA0227C
:104130001A80274B80221A80264B1A78264B1A7039
:10414000264B1A78264B1A7032E0A023FB73204BC3
:10415000A0221A801D4B80221A801E4B1A78204BF9
:104160001A701E4B1A781C4B1A7021E00023FB7347
:10417000164BA0221A80164B80221A80154B1A78F3
:10418000154B1A70154B1A78154B1A7010E06023F6
:10419000FB730F4BA0221A800C4B80221A800D4B10
:1041A0001A780F4B1A700D4B1A780B4B1A7000BF10
:1041B0003620FFF760FEFB7B1846FFF771FE00BF5D
:1041C0001037BD4680BD00BF2C000020020000203B
:1041D000000000202D0000202F0000202E000020D5
:1041E0003000002080B483B000AF0346FB710B4663
:1041F000BB7113467B71FB79022B7AD0022B00F343
:10420000B680002B02D0012B3AD0B0E0BB79072B4F
:1042100017D8594B1B68BA7992000F2101FA02F2A4
:10422000D2431146544A0B401360534B1B687979B3
:10423000BA79920001FA02F211464F4A0B43136019
:1042400090E0BB790F2B00F28D80BB79083BBB71EE
:104250004A4B1B68BA7992000F2101FA02F2D2434D
:104260001146464A0B401360444B1B687979BA7972
:10427000920001FA02F21146404A0B43136071E0CA
:10428000BB79072B17D83E4B1B68BA7992000F21D8
:1042900001FA02F2D2431146394A0B401360384BFF
:1042A0001B687979BA79920001FA02F21146344A10
:1042B0000B43136058E0BB790F2B55D8BB79083BF3
:1042C000BB71304B1B68BA7992000F2101FA02F2E0
:1042D000D24311462B4A0B4013602A4B1B68797955
:1042E000BA79920001FA02F21146264A0B43136092
:1042F0003AE0BB79072B17D8234B1B68BA79920099
:104300000F2101FA02F2D24311461F4A0B401360FB
:104310001D4B1B687979BA79920001FA02F21146B5
:10432000194A0B43136021E0BB790F2B1ED8BB79D0
:10433000083BBB71154B1B68BA7992000F2101FA3B
:1043400002F2D2431146114A0B4013600F4B1B6817
:104350007979BA79920001FA02F211460B4A0B43BD
:10436000136003E000BF02E000BF00E000BF00BF39
:104370000C37BD4680BC704700080140040801406E
:10438000000C0140040C01400010014004100140E9
:1043900080B483B000AF0346FB710B46BB7113467C
:1043A0007B71FB79022B40D0022B60DC002B02D00A
:1043B000012B1DD05BE07B79012B0AD12E4B1B68B2
:1043C000BA79012101FA02F211462B4A0B4313601C
:1043D00048E07B79002B45D1274B1B68BA79012136
:1043E00001FA02F2D2431146234A0B40136039E02E
:1043F0007B79012B0AD1214B1B68BA79012101FA83
:1044000002F211461D4A0B4313602DE07B79002B0D
:104410002AD11A4B1B68BA79012101FA02F2D24360
:104420001146164A0B4013601EE07B79012B0AD11E
:10443000134B1B68BA79012101FA02F21146104AA6
:104440000B43136012E07B79002B0FD10C4B1B68E0
:10445000BA79012101FA02F2D2431146084A0B400F
:10446000136003E000BF02E000BF00E000BF00BF38
:104470000C37BD4680BC70470C0801400C0C014055
:104480000C10014080B485B000AF03460A46FB71B2
:104490001346BB710023FB73FB79022B1AD0022B4E
:1044A00022DC002B02D0012B0AD01DE0114B1A6830
:1044B000BB7922FA03F3DBB203F00103FB7313E0D1
:1044C0000D4B1A68BB7922FA03F3DBB203F0010348
:1044D000FB7309E0094B1A68BB7922FA03F3DBB2DC
:1044E00003F00103FB7300BFFB7B18461437BD4686
:1044F00080BC704708080140080C014008100140CA
:1045000080B400AF044B81221A60044B00221A6071
:1045100000BFBD4680BC704700100240041002403E
:1045200080B483B000AF03460A46FB711346BB71EB
:10453000BB791F2B2BD8FB79022B1CD0022B25DC3F
:10454000002B02D0012B0BD020E0134B1B68BA7953
:10455000012101FA02F211460F4A0B43136016E0E3
:104560000E4B1B68BA79012101FA02F211460B4A7F
:104570000B4313600BE00A4B1B68BA79012101FA67
:1045800002F21146064A0B43136000E000BF00BF71
:104590000C37BD4680BC7047141002401C1002400E
:1045A0001810024080B400AF034B40F247321A604B
:1045B00000BFBD4680BC70470030014080B582B06E
:1045C00000AF03463960FB71002200210020FFF795
:1045D000DFFE0C4AFB79D36000BF0A4B9B68DB0906
:1045E00003F00103012BF8D0064BDB68DAB23B681D
:1045F0001A70012200210020FFF7CAFE00BF083711
:10460000BD4680BD0030014080B400AF034B0422A2
:104610001A6000BFBD4680BC704700BF10E000E0DC
:1046200080B483B000AF7860104A7B6853600F4B52
:104630001B680E4A43F00103136000BF0B4B1B685D
:1046400003F48033002BF9D0084B1B68074A43F072
:1046500001031360054B00225A60044B00229A604C
:1046600000BF0C37BD4680BC704700BF10E000E0C3
:1046700080B582B000AF304B1B78002B34D02F4B6D
:104680001B682E4A23F0010313602C4B00229A6012
:10469000294B1B780E2B0AD8274B1B781A46284B20
:1046A00003FB02F2254B5A60234B00221A70224B67
:1046B0001B780F2B08D9214B224A5A601E4B1B78BE
:1046C0000F3BDAB21C4B1A701C4B1B681B4A43F0A1
:1046D000010313601C4B00221A70184B1B68174A09
:1046E00043F0020313601CE0174B1B78002B18D11A
:1046F000114B1B78002B14D1104B1B680F4A23F071
:10470000020313600D4B1B680C4A43F00103136056
:104710000A4B00225A60094B00229A600B4B1B681F
:104720009847064B1B681B0CDBB203F00103FB71BF
:1047300000BF0837BD4680BD3100002010E000E01A
:1047400040420F00C0E1E4003800002034000020A7
:1047500080B584B004AFFFF7D3FE02210220FFF73B
:10476000DFFE03210220FFF7DBFE0C210220FFF712
:10477000D7FE022201210020FFF734FD0222022190
:104780000020FFF72FFD092205210020FFF72AFD59
:10479000092207210020FFF725FD02220821012020
:1047A000FFF720FD022207210120FFF71BFD022257
:1047B00006210120FFF716FD082200210120FFF746
:1047C00011FD012200210120FFF7E2FDFFF71CFF90
:1047D000FFF7E8FEFFF7CCFA0020FFF789FC002086
:1047E000FFF706FB0120FFF783FC374B0022029204
:1047F0001F2201925A6800921B68344A002100204F
:10480000FFF728FC304B002202921F2201925A68C7
:1048100000921B682E4A1E210020FFF71BFC2A4B2A
:10482000002202921F2201925A6800921B68294AB4
:1048300046210020FFF70EFC002207210120FFF790
:10484000A7FD012206210120FFF7A2FD0022082179
:104850000120FFF79DFD1FE000210120FFF712FE60
:1048600003461A461C4B1A70012206210120FFF74D
:104870008FFD1A48FFF7D4FE00210120FFF702FE4A
:1048800003461A46144B1A70002206210120FFF736
:104890007FFD1248FFF7C4FE0F4B1B78DBB2012BE4
:1048A000DAD00D4B1B78DBB2002B0AD10C4B4FF04A
:1048B00000621A600B4B1B680B4A13600A4B1B68A3
:1048C000984700BFBD4680BD04000020A0490008F5
:1048D000B0490008C04900080C000020404B4C00C3
:1048E00008ED00E0040000083C0000200D4885466B
:1048F000AFF300800C480D490D4A002302E0D45864
:10490000C4500433C4188C42F9D30A4A0A4C002319
:1049100001E013600432A242FBD300F011F8FFF76C
:1049200017FFFEE7005000200000002010000020CC
:10493000345700081000002040000020FEE700006F
:1049400070B500260C4D0D4C641BA410A64209D175
:1049500000F01AF800260A4D0A4C641BA410A64267
:1049600005D170BD55F8043B98470136EEE755F880
:10497000043B98470136F2E72C5700082C570008F3
:104980002C57000830570008F8B500BFF8BC08BC29
:104990009E467047F8B500BFF8BC08BC9E467047FD
:1049A00020204E45572055504441544553000000A7
:1049B0004150504C4C49434154494F4E2031000026
:1049C000202020424C5545204C454420200000002A
:1049D00000000000000000000000000000000000D7
:1049E00000000000000000000000000000000000C7
:1049F000000000000000000C000C000C000C000C7B
:104A0000000C000C000C000C000C000C0000000C52
:104A1000000C0000000000000000001B001B001B39
:104A2000001B001B00000000000000000000000050
:104A300000000000000000000000000000008019DD
:104A4000801980198019C07FC07F80190033C07F12
:104A5000C07F00330033003300330000000000004B
:104A60000000001E003F807580650074003C001E41
:104A700000078005806580658075003F001E00048A
:104A8000000400000000007000D840D8C0D880D9D1
:104A900000730006000C801BC036C066C046C0060E
:104AA00080030000000000000000001E003F0033F3
:104AB00000330033001E000CC03CC0668063806180
:104AC0008063C03E801C0000000000000000000C5D
:104AD000000C000C000C000C0000000000000000A6
:104AE00000000000000000000000000000000000C6
:104AF000800000010003000600060004000C000C0A
:104B0000000C000C000C000C000400060006000362
:104B100000018000002000100018000C000C0004B0
:104B20000006000600060006000600060004000C51
:104B3000000C0018001000200000000C002D003FA9
:104B4000001E003300000000000000000000000014
:104B50000000000000000000000000000000000055
:104B60000000000C000C000C000CC0FFC0FF000C8B
:104B7000000C000C000C0000000000000000000011
:104B80000000000000000000000000000000000025
:104B900000000000000000000000000C000C0004F9
:104BA00000040008000000000000000000000000F9
:104BB000000000000000001E001E000000000000B9
:104BC00000000000000000000000000000000000E5
:104BD00000000000000000000000000000000000D5
:104BE0000000000C000C00000000000000000003AA
:104BF000000300030006000600060006000C000C7F
:104C0000000C000C00180018001800000000000044
:104C10000000001E003F0033806180618061806D74
:104C2000806D8061806180610033003F001E000064
:104C30000000000000000006000E001E00360026E6
:104C40000006000600060006000600060006000634
:104C500000060000000000000000001E003F8073FE
:104C600080618061800100030006000C00180030A4
:104C70000060807F807F0000000000000000001CBA
:104C8000003E006300630003000E000E000380017D
:104C9000800180618073003F001E00000000000062
:104CA00000000006000E000E001E001E001600365A
:104CB00000360066807F807F000600060006000048
:104CC000000000000000007F007F006000600060C6
:104CD000006E007F80638001800180618073003FEF
:104CE000001E0000000000000000001E003F803396
:104CF00080610060006E007F8073806180618061F0
:104D00008033003F001E0000000000000000807F94
:104D1000807F80010003000300060006000C000CE9
:104D2000000C000800180018001800000000000027
:104D30000000001E003F8063806180610021001E32
:104D4000003F8061806180618061003F001E000043
:104D5000000000000000001E003F007380618061C1
:104D600080618073803F801D800180610073003FFF
:104D7000001E000000000000000000000000000015
:104D80000000000C000C000000000000000000000B
:104D90000000000C000C00000000000000000000FB
:104DA0000000000000000000000C000C00000000EB
:104DB000000000000000000C000C000400040008CB
:104DC000000000000000000080008003000E00389A
:104DD00000600038000E800380000000000000002A
:104DE0000000000000000000000000000000807FC4
:104DF000807F00000000807F807F000000000000B6
:104E000000000000000000000000000000000000A2
:104E100000400070001C000780010007001C0070AB
:104E20000040000000000000000000000000001F23
:104E3000803FC071C060C000C00180030007000E49
:104E4000000C000C0000000C000C00000000000032
:104E50000000001E003F803180718063806F806D94
:104E6000806D806F806700600032003E001C000093
:104E7000000000000000000E000E001B001B001BC5
:104E8000001B80318031803F803F8031C060C06036
:104E9000C0600000000000000000007C007E006395
:104EA000006300630063007E007E006380618061B8
:104EB0008063007F007E0000000000000000001EF4
:104EC000003F803180610060006000600060006031
:104ED000006080618031003F001E00000000000083
:104EE0000000007C007F00638063806180618061DE
:104EF00080618061806100630063007E007C00004F
:104F0000000000000000807F807F00600060006083
:104F10000060007F007F0060006000600060807FB4
:104F2000807F0000000000000000807F807F006024
:104F3000006000600060007F007F00600060006033
:104F40000060006000600000000000000000001E23
:104F5000003F80318061006000600060806380639A
:104F6000806180618031803F001E000000000000F1
:104F70000000806180618061806180618061807FEC
:104F8000807F8061806180618061806180610000DC
:104F9000000000000000003F003F000C000C000C6F
:104FA000000C000C000C000C000C000C000C003F6E
:104FB000003F00000000000000008001800180012F
:104FC0008001800180018001800180018061806119
:104FD0008073003F001E0000000000000000C06061
:104FE0008061006300660066006C0078007C0066EB
:104FF0000066006380618061C06000000000000006
:105000000000006000600060006000600060006000
:1050100000600060006000600060807F807F0000B2
:10502000000000000000C071C071C07BC07AC06A7F
:10503000C06AC06EC064C060C060C060C060C06054
:10504000C060000000000000000080718071807965
:1050500080798079806D806D806D806580678067E4
:105060008067806380630000000000000000001E75
:10507000003F003380618061806180618061806178
:10508000806180610033003F001E000000000000CE
:105090000000007E007F80638061806180618063AA
:1050A000007F007E00600060006000600060000023
:1050B000000000000000001E003F0033806180619E
:1050C0008061806180618061806580670033803F9E
:1050D000401E0000000000000000007E007F806392
:1050E000806180618063007F007E006600630063F2
:1050F00080618061C0600000000000000000000EC0
:10510000001F8031803100300038001E000780030E
:10511000806180618031003F001E000000000000BF
:105120000000C0FFC0FF000C000C000C000C000CC5
:10513000000C000C000C000C000C000C000C00001B
:1051400000000000000080618061806180618061FA
:105150008061806180618061806180618073003FD7
:10516000001E0000000000000000C060C060C060C1
:10517000803180318031001B001B001B001B000EA2
:10518000000E000E00040000000000000000C0C07F
:10519000C0C0C0C0C0C0C0C0C0CC804C804C805E0D
:1051A00080528052807380618061000000000000A6
:1051B0000000C0C0806080610033003B001E000C16
:1051C000000C001E001F003B80718061C0C0000009
:1051D000000000000000C0C0806180610033003327
:1051E000001E001E000C000C000C000C000C000C3B
:1051F000000C0000000000000000803F803F8001A4
:10520000000300030006000C000C0018001800301A
:105210000060807F807F000000000000000F000F12
:10522000000C000C000C000C000C000C000C000C1E
:10523000000C000C000C000C000C000C000F000F08
:105240000000001800180018000C000C000C000CE6
:10525000000600060006000600030003000300002D
:1052600000000000001E001E0006000600060006EA
:1052700000060006000600060006000600060006FE
:1052800000060006001E001E0000000C000C001EA0
:1052900000120033003380618061000000000000D4
:1052A00000000000000000000000000000000000FE
:1052B00000000000000000000000000000000000EE
:1052C000000000000000000000000000E0FF0000FF
:1052D000000000380018000C000000000000000072
:1052E00000000000000000000000000000000000BE
:1052F0000000000000000000000000000000001F8F
:10530000803F80618001801F803F80618063807F5B
:10531000C038000000000000000000600060006075
:105320000060006E007F80738061806180618061B9
:105330008073007F006E000000000000000000008D
:10534000000000000000001E003F807380610060CC
:10535000006080618073003F001E000000000000BC
:1053600000008001800180018001801D803F8073EA
:1053700080618061806180618073803F801D00005A
:105380000000000000000000000000000000001EFF
:10539000003F00738061807F807F00608071003FEC
:1053A000001E0000000000000000C007C00F000C3D
:1053B000000C807F807F000C000C000C000C000CA7
:1053C000000C000C000C00000000000000000000B9
:1053D00000000000801D803F8073806180618061DB
:1053E00080618073803F801D80018063007F003E6C
:1053F00000000060006000600060006F807F8071CE
:105400008061806180618061806180618061000075
:105410000000000000000006000600000000003E42
:10542000003E000600060006000600060006000614
:10543000000600000000000000060006000000005A
:10544000003E003E000600060006000600060006BC
:105450000006000600060046007E003C00000060DA
:10546000006000600060806100630066006C007C8A
:105470000076006300638061C060000000000000EF
:105480000000003E003E0006000600060006000682
:1054900000060006000600060006000600060000E2
:1054A000000000000000000000000000000080DD9F
:1054B000C0FFC0CEC0CCC0CCC0CCC0CCC0CCC0CC57
:1054C000C0CC000000000000000000000000000050
:1054D0000000006F807F80718061806180618061E9
:1054E0008061806180610000000000000000000019
:1054F000000000000000001E003F8073806180619A
:10550000806180618073003F001E00000000000089
:105510000000000000000000006E007F80738061CA
:105520008061806180618073007F006E0060006038
:10553000006000600000000000000000801D803F4F
:10554000807380618061806180618073803F801D95
:105550008001800180018001000000000000000047
:1055600000000067803F003900300030003000301C
:10557000003000300030000000000000000000009B
:10558000000000000000001E803F80610060007F7E
:10559000803F80018061007F001E0000000000004D
:1055A00000000000000800180018007F007F0018AD
:1055B00000180018001800180018801F800F000045
:1055C00000000000000000000000000000008061FA
:1055D0008061806180618061806180618063807FA3
:1055E000803D0000000000000000000000000000FE
:1055F0000000C060803180318031001B001B001B27
:10560000000E000E00060000000000000000000078
:1056100000000000000080DD80DD80DD00550055C9
:1056200000550077007700220022000000000000F3
:105630000000000000000000000080610033003323
:10564000001E000C000C001E0033003380610000BF
:105650000000000000000000000000008061806188
:10566000803100330033001B001B001B000E000EB6
:10567000000E001C007C0070000000000000000014
:105680000000C07FC07F800100030006000C0018EE
:105690000030C07FC07F0000000000008003800752
:1056A00000060006000600060006000E001C001C96
:1056B000000E0006000600060006000680078003B4
:1056C00000060006000600060006000600060006AA
:1056D000000600060006000600060006000600069A
:1056E000000600060038003C000C000C000C000C0A
:1056F000000C000E00070007000E000C000C000C50
:10570000000C000C003C003800000000000000000D
:105710000000000000008038807F0047000000008B
:0C5720000000000000000000000000007D
:04572C00553D0008DF
:04573000313D0008FF
:105734008000A0000B120000D04900080100000006
:04000005080048EDBA
:00000001FF
